:020000040800F2
:1000000000100020050400084F04000851040008F7
:1000100000000000000000000000000000000000E0
:100020000000000000000000000000005304000871
:1000300000000000000000005504000857040008FC
:100040005B0400085D0400085F0400086104000808
:1000500063040008650400086704000869040008D8
:100060006B0400086D0400086F04000871040008A8
:100070007304000875040008770400087904000878
:100080007B0400087D0400087F0400088104000848
:100090008304000885040008870400088904000818
:1000A0008B0400088D0400088F04000891040008E8
:1000B00093040008950400089704000899040008B8
:1000C0009B04000810B5064C2378002B07D1054B84
:1000D000002B02D0044800E000BF0123237010BDB4
:1000E00068000020000000002007000808B5084B49
:1000F000002B03D00748084900E000BF0748036809
:10010000002B03D0064B002B00D0984708BDC046FB
:1001100000000000200700086C000020680000209C
:1001200000000000164B002B00D1144B9D464022CE
:1001300092029A1A924600218B460F461348144A9F
:10014000121A00F0D3FA0F4B002B00D098470E4B39
:10015000002B00D098470020002104000D000D481E
:10016000002802D00C4800E000BF00F099FA2000FF
:10017000290000F013F800F07DFAC04600000800E6
:1001800000100020000000000000000068000020B7
:1001900084000020000000000000000090B583B043
:1001A00000AF00F031F800F0A5F800F0E7F8144BCC
:1001B000134A926804210A439A60C046104B1A6899
:1001C00004231340FAD00E4B1A6CFB1D1A700D4B12
:1001D000FA1D127892B29A82BC1DFB1D1B78181C66
:1001E000032100F0F7F9031C23708023DA05BB1DFF
:1001F00019780B1C9B005B181B011364D7E7C046E2
:10020000002401400004004880B500AF374B374A56
:1002100052698021C9020A435A61344B334AD26978
:1002200001210A43DA61324B314A12688021890385
:100230000A431A602E4B2E4A1268802109040A4391
:100240001A602B4B2A4A526A802189000A435A625B
:10025000274B274A526A802189010A435A62802328
:10026000DB05FA225201DA628023DB058022D20507
:10027000928B92B260210A4392B29A838023DB056B
:100280008022D205928B92B2C021C9010A4392B258
:100290009A838023DB05C822D200DA638023DB0542
:1002A000E12252011A648023DB058022D205128CE0
:1002B00092B2802149000A4392B21A848023DB055E
:1002C0008022D205128C92B2802149010A4392B257
:1002D0001A848023DB058022D205128892B2012184
:1002E0000A4392B21A80BD4680BDC046001002404B
:1002F0000004004880B500AF1E4B1E4A52698021A1
:10030000C9020A435A611C4B1B4A126801210A4365
:100310001A60194B184A126804210A431A60164BD6
:10032000154A126810210A431A60134B124A1268C8
:1003300040210A431A60104B0F4A1268802149007D
:100340000A431A600C4B0C4A12688021C9000A4308
:100350001A60094B084A1268802149010A431A6051
:10036000054B054A12688021C9010A431A60BD463F
:1003700080BDC046001002400004004880B500AFB8
:100380001E4B1E4A9269802189000A439A611B4BC9
:100390001A4A5269802189020A435A619023DB0577
:1003A0009022D2051268C02109010A431A60144B39
:1003B000134A926A20210A439A62114B104AD2686A
:1003C00010210A43DA600E4B0D4A9268802109061B
:1003D0000A439A60C0460A4B9B68002BFBDB084B24
:1003E000074A926801210A439A60C046044B1A6882
:1003F00001231340FAD0BD4680BDC0460010024024
:10040000002401400749084A084B9B1A05DD0024D7
:100410000859105104349C42FADB054880470548CE
:10042000004700002C0700080000002068000020A2
:10043000A5040008250100081849194A002301E015
:100440000B6004319142FBD3FFF7A8FEFEE7FEE705
:10045000FEE7FEE7FEE7FEE7FEE7FEE7FEE7FEE774
:10046000FEE7FEE7FEE7FEE7FEE7FEE7FEE7FEE764
:10047000FEE7FEE7FEE7FEE7FEE7FEE7FEE7FEE754
:10048000FEE7FEE7FEE7FEE7FEE7FEE7FEE7FEE744
:10049000FEE7FEE7FEE7FEE7FEE7FEE76800002076
:1004A0008400002080B500AF1B4B1B4A126801215D
:1004B0000A431A60184B184A5168184A0A405A6091
:1004C000154B154A1168164A0A401A60124B124A17
:1004D0001168144A0A401A600F4B0F4A5168124AB9
:1004E0000A405A600C4B0C4AD26A0F218A43DA62E6
:1004F000094B094A116B0D4A0A401A63064B064A1A
:10050000526B01218A435A63034B00229A6000F028
:100510000FF8BD4680BDC046001002400CB8FFF881
:10052000FFFFF6FEFFFFFBFFFFFFC0FFACFEFFFF7C
:1005300080B582B000AF00237B6000233B60234B7B
:10054000224A1268802149020A431A601F4B1A6826
:1005500080239B0213403B607B6801337B603B68D8
:10056000002B04D17A68A023DB019A42EED1174B0D
:100570001A6880239B02134002D001233B6001E0F4
:1005800000233B603B68012B1DD1114B10221A60E8
:100590000E4B0E4A52685A600C4B0C4A52685A6015
:1005A0000A4B0A4A526803218A435A60074B074A9A
:1005B000526801210A435A60C046044B5A680C2312
:1005C0001340042BF9D1BD4602B080BD001002409B
:1005D00000200240002934D00123002210B48842B8
:1005E0002CD301242407A14204D2814202D2090162
:1005F0001B01F8E7E400A14204D2814202D2490083
:100600005B00F8E7884201D3401A1A434C08A04225
:1006100002D3001B5C0822438C08A04202D3001BBB
:100620009C082243CC08A04202D3001BDC082243D2
:10063000002803D01B0901D00909E3E7101C10BCF6
:100640007047002801D00020C04307B4024802A12F
:100650004018029003BDC046190000000029F0D0E8
:1006600003B5FFF7B9FF0EBC4243891A1847C046CD
:100670007047C046084B10B5041C002B02D0002167
:1006800000E000BF054B1868836A002B00D0984734
:10069000201C00F033F8C046000000001C070008D2
:1006A00070B50E4B0E4D0024ED1AAD101E1CAC4261
:1006B00004D0A300F35898470134F8E700F020F87D
:1006C000084B094D0024ED1AAD101E1CAC4204D09D
:1006D000A300F35898470134F8E770BD600000208C
:1006E000600000206000002064000020031C8218CD
:1006F000934202D019700133FAE77047FEE7000019
:10070000F8B5C046F8BC08BC9E467047F8B5C04670
:10071000F8BC08BC9E467047430000000000002063
:0407200000000000D5
:0807240000FAFF7F0100000054
:10072C0000000000000000000000000000000000BD
:10073C0000000000000000000000000000000000AD
:10074C001807000800000000000000000000000076
:10075C00000000000000000000000000000000008D
:10076C00000000000000000000000000000000007D
:10077C00000000000000000000000000000000006D
:08078C00ED000008C5000008A3
:0400000508000000EF
:00000001FF
